:0300000002010DED
:0C010D00787FE4F6D8FD75810E02000337
:0E00FF007E306D79335B5F707F7B0180006F18
:10000300E4F509F5907F19FE1200C5E4F508C37401
:10001300979508FFE508FDC374089DFDE49400FC73
:1000230074FF2DF58274003CF583E493FD120119EE
:100033000508E508C3940840D57FFA7E001200C581
:070043007FA312004A80F2C6
:02004A008F0B1A
:10004C00E4F50CC2967F0CFE1200E7E4F50CE50B10
:10005C0030E704D2948002C294D2977F027E0012C1
:10006C0000E7C2977F027E001200E7E50B25E0F562
:0C007C000B050CE50CC3940840D4C294A2
:010088002255
:10008900E4F50DF50ED2947F0CFE1200E7E4F50DB0
:10009900D2977F027E001200E7E50E25E0F50E30CB
:1000A9009403430E01C2977F027E001200E7050DFB
:0B00B900E50DC3940840D9C294AF0EBF
:0100C4002219
:0A0119008D0A12004AAF0A02004AE4
:090123007F1512004A1200892226
:1000C500E4FDFCC3ED9FEC9E5017E4FAFB79010BB0
:1000D500BB00010ABA01F6BB63F30DBD00010C803C
:0100E500E238
:0100E60022F7
:1000E700E4FDFCC3ED9FEC9E500DE4FB0BBB04FC51
:0700F7000DBD00010C80ECBF
:0100FE0022DF
:00000001FF
