:030000000202E514
:0C02E500787FE4F6D8FD75810F0200035D
:0E02D7007E306D79335B5F707F7B0180006F3E
:10000300E4F508F50AF50B750C19F5907F19FE1246
:10001300029DE4F509C374979509FFE509FDC374CF
:10002300089DFDE49400FC74D72DF58274023CF521
:1000330083E493FD1202F10509E509C3940840D551
:100043007F0A7E0012029D1202FB8F0BE5081460EB
:100053001D14603E240270E8E50BB4FF0AD50CE0E2
:10006300750C197FA38014E50BB412D48017E50B2C
:10007300B4FF0DD50CCA750C197FA21201FC80C008
:10008300E50BB412BB750C197FA41201FC750802B1
:1000930080AEE50B12027700BC0000DC0100FC021D
:1000A300011C03013C08015C09017C0A019C0B0152
:1000B300BC1001DC1100000043E4F509E509C39419
:1000C300084003020043C374979509FF9002D7E4E5
:1000D30093FD1202F1050980E3E4F509E509C394F0
:1000E300084003020043C374979509FF9002D8E4C4
:1000F30093FD1202F1050980E3E4F509E509C394D0
:10010300084003020043C374979509FF9002D9E4A2
:1001130093FD1202F1050980E3E4F509E509C394AF
:10012300084003020043C374979509FF9002DAE481
:1001330093FD1202F1050980E3E4F509E509C3948F
:10014300084003020043C374979509FF9002DBE460
:1001530093FD1202F1050980E3E4F509E509C3946F
:10016300084003020043C374979509FF9002DCE43F
:1001730093FD1202F1050980E3E4F509E509C3944F
:10018300084003020043C374979509FF9002DDE41E
:1001930093FD1202F1050980E3E4F509E509C3942F
:1001A300084003020043C374979509FF9002DEE4FD
:1001B30093FD1202F1050980E3E4F509E509C3940F
:1001C300084003020043C374979509FF9002DFE4DC
:1001D30093FD1202F1050980E3E4F509E509C394EF
:1001E300084003020043C374979509FF9002E0E4BB
:0901F30093FD1202F1050980E3FD
:0201FC008F0E64
:1001FE00E4F50FC2967F0CFE1202BFE4F50FE50E7A
:10020E0030E704D2948002C294D2977F027E00120D
:10021E0002BFC2977F027E001202BFE50E25E0F5F7
:0C022E000E050FE50FC3940840D4C294E5
:01023A0022A1
:10023B00E4F50DF50ED2947F0CFE1202BFE4F50D22
:10024B00D2977F027E001202BFE50E25E0F50E303D
:10025B009403430E01C2977F027E001202BF050D6D
:0B026B00E50DC3940840D9C294AF0E0B
:010276002265
:0A02F1008D0D1201FCAF0D0201FC9F
:0902FB007F151201FC12023B22E6
:10029D00E4FDFCC3ED9FEC9E5017E4FAFB79010BD6
:1002AD00BB00010ABA01F6BB63F30DBD00010C8062
:0102BD00E25E
:0102BE00221D
:1002BF00E4FDFCC3ED9FEC9E500DE4FB0BBB04FC77
:0702CF000DBD00010C80ECE5
:0102D6002205
:10027700D083D082F8E4937012740193700DA3A316
:1002870093F8740193F5828883E47374029368602A
:06029700EFA3A3A380DF2A
:00000001FF
